:020000040000fa
:080000000002040000000000f2
:020000040000fa
:10040000efa220000eff20000e0188000000000077
:100410000c000700e0782000010020001100070018
:10042000000020000000e000020032000000020096
:1004300000000000ba060200000000000040da00e0
:100440000000fe004440a900e00320000000e0009e
:100450000300320000002000a00188004440a800f2
:100460000000060091018800800078000000eb0089
:1004700015003700e280400032a0b4009101ba00bc
:10048000e280400032a0b4009102ba00e280400055
:1004900032a0b4000002eb00472bde00f507b200eb
:1004a000602ce10004003a000059eb008301e900f0
:1004b000fdff3e00040037006128e100010032002a
:1004c0000082eb00040007001101ba000200e00006
:1004d000e8ff3a00000006003159ba008301e90044
:1004e0000c0032002159ba008301e90008003200f3
:1004f0000400e00003003a00e280400032a0b400b3
:10050000f5ff370011d9ba008301e900faff3a007c
:100510008100e800e180400032a0b4000000060045
:100520000040da000000fe000003b1000b003500bf
:100530009000b100080034008000b10007003500d1
:100540009001b100040034007000b10003003500d8
:100550009001b10001003c00100005000000050002
:100560001004b100070035009001b1000400340010
:100570007000b100030035009001b10001003c00a3
:10058000100005000000050010417800b141510045
:1005900003003a000000e8000204e000faff3a001d
:1005a0000300fb00000006000001780000c2b30059
:1005b000010037000201e8009240780080cf50002f
:1005c000fcff3200e9cf5000faff3200d0c2b30086
:1005d00080cf500003003a000201e80014c0b300cd
:1005e000050037000042eb00b0c2b30080cf5000de
:1005f00001003a000201e8008000eb0005fd2f0039
:10060000040037006a08b9000080410085004000fe
:100610000201e8009201fb0005804100e90f500053
:10062000f8ff36000404e000010032008100ea0017
:1006300001007800000006000002780081017800c7
:1006400001007800110009000280d8008400e80051
:100650000000e0000200320001027800f9ff3700dc
:100660008048eb00110009008281d8008000fd0065
:1006700081017800e94f50000100340067404000dc
:1006800005c3b300055240000100e000f5ff3a0049
:100690000400780000000600881f7800000478003d
:1006a0000100e000020035008001780004003700fe
:1006b00080017800d0c2b300805978008100ea0040
:1006c00003007800dcff0700080078004f04780082
:0406d0000000060020
:020000040000fa
:1000080090020000900200009002000090020000a0
:100018009002000090020000900200009002000090
:100028009002000090020000900200009002000080
:100038009002000090020000900200009002000070
:020000040000fa
:020000040000fa
:1006d40045720000726f0000722e0000205400006a
:1006e400797000006520000027680000656c000038
:1006f400702700002e0d00000a0000005265000063
:1007040061640000792e00000d0a000000730000ef
:10071400657400000067000065740000006d00004f
:1007240061780000006300006c65000061720000e5
:10073400006f00006e0000006f660000660000009d
:0c074400706f00006c6c000000000000f2
:020000040000fa
:100750000000fa00d4010700313a800000e02f00c9
:10076000008060006102200001007000303a8800c3
:10077000417420009140780000ceb30000c06000ba
:1007800044e7b70044c7bf00f043b20044e7b700f6
:10079000cc82a900cca2a900c882a900c8a2a90045
:1007a0006960a800416a20009140780000ceb30043
:1007b00000c06000b040b300a4e6b700a16c200008
:1007c0009140780000ceb30000c060003040b3001c
:1007d000cae6b700cd02a900c902a9000080fa004c
:1007e000000006000400fa00a1010700004f780095
:1007f00080c0b3009e4f100007003a000040800008
:100800000000e00004003200004080000000e90029
:100810000040880027003700d0c0b3009e4f100072
:100820000a003a000140800080a020008080400043
:100830000040eb00804878000000eb00004088009a
:1008400010002000100798001c003700f0c1b30012
:100850009e4f100017003600e0c7b3009e4f1000f7
:1008600014003e00014080001e41780080a020005e
:1008700000804000024878000100e8000040880045
:1008800000408000f40f50000a003a000140800050
:1008900080a02000808040000040eb00804878006d
:1008a0000000eb00004088001000200010079800b6
:1008b000020037000000eb00100798001e009000b7
:1008c0000080fa00000006000800fa000000eb00bb
:1008d000200798000000eb001007980040c6b30006
:1008e000004f78000000eb00405188000000eb0052
:1008f000300798005d003700be00900080a0200007
:1009000000804000104078000000fb0006ff070058
:100910000000e0004b003200be00900080a02000ec
:1009200000804000104078000000fb000cff070032
:100930000000e0001d00320040c6b3009e4f1000d2
:1009400014003a002e00900080004000e0a120003a
:1009500000804000be00900001087800ae009000ca
:1009600030a020008080400010c6b300804878008e
:100970002e0090000000e8002007980010c6b30089
:10098000004f7800405180000000e800405188008e
:1009900033003700e0c6b3009e4f100030003a002d
:1009a000100020001007980039003700be009000aa
:1009b00080a0200000804000104078008000fb00f4
:1009c00000fd2f0000804000e90f500024003e0091
:1009d00040c6b3009e4f100014003a002e00900055
:1009e00080004000e0a1200000804000be00900098
:1009f00001087800ae00900030a020008080400008
:100a0000e0c6b300804878002e0090000000e800a7
:100a100020079800e0c6b300004f780040518000e6
:100a20000000e800405188000d00370010c6b300f8
:100a30009e4f10000a003a00100020001007980096
:100a400013003700be00900080a02000808040008e
:100a50000040eb008048780040c6b300004f7800ab
:100a60003e0090000000e80030079800be009000b3
:100a700080a0200000804000104078000004e000ca
:100a8000030032003e009000f40f50009aff360041
:100a90001e0090000080fa00000006000600fa0028
:100aa000000f780011079800f05080008000780057
:100ab00080a02000808040001e007800b2fe070069
:100ac0000000e00007003a009e00900040518000c6
:100ad000808f500003003a0010002000200798008b
:100ae000020037000000eb00200798002e00900065
:100af0000080fa00000006000400fa0010079800c9
:100b00000000eb00000f78001e0090008000400005
:100b1000e0a12000008040001000780080007800f4
:100b200080a02000008040009ffe0700000f78009a
:100b30001e0078000080fa00000006000200fa00a3
:100b40000000eb00000f7800060037009e007800e0
:100b500020802000808040000040eb00804878002a
:100b60001e0fe800002020009e0f1000f7ff340049
:100b70000080fa00000006000c00fa0019ff0700d0
:100b80000000e000790032004fff07000000e000a5
:100b90006a003a003100200090382800bfff0700ab
:100ba0000000e0001a00320041a0200091407800cf
:100bb000e0c6b30080cf500012003a0051a02000e0
:100bc00091407800e0c6b30080cf50000d003a009d
:100bd00010002000c8ff0700200798002000200018
:100be000c5ff0700100798002e0190001e0090001e
:100bf00080407800208020000000410001487800fb
:100c00005000370010002000000f78004d00370022
:100c100021002000d0382800a0ff07000000e000dd
:100c20001600320041a0200091407800e0c6b300d9
:100c300080cf50000e003a0010002000aeff0700e9
:100c400020079800ae009000208020000080400027
:100c5000104078008080fb0066004700a200200062
:100c60008dfe070066004700620007003500370070
:100c700010002000000f7800320037002100200013
:100c80001039280085ff07000000e0000c0032004a
:100c900041a0200091407800e0c6b30080cf500012
:100ca00004003a001000200093ff07005051880014
:100cb0002400370010002000000f780021003700ca
:100cc000110020005039280074ff07000000e000e8
:100cd0000200320099ff07001a00370011002000bf
:100ce000b03928006dff07000000e000030032006b
:100cf00010c0b3002ceab70012003700110020002a
:100d0000e039280065ff07000000e0000300320022
:100d10000040eb002ceab7000a0037001100200069
:100d2000203a28005dff07000000e00005003a00bf
:100d300010002000000f7800020037001000200093
:100d4000000f7800100020009e0f100005003a00f0
:100d5000a0362800270007000000eb00000f7800f5
:100d60000200370000382800220007000080fa0047
:100d7000000006000200fa0075fe070010082000bf
:100d800012000700cd02a8006cff0700cc82a8006b
:100d9000401f200057000700cc82a900003828001f
:100da00014000700000037002ccabf000004e00058
:100db000fdff320022c2bf00614060000004e0007d
:100dc000f9ff32006cff0700f7ff37000200fa005e
:100dd000000f78001e0078004011880000002800f5
:100de0000011880000402000101188000080fa00e7
:100df000000006000400fa00100798000000eb0055
:100e0000000f7800070037001e007800800078008f
:100e10001e00900000804000104078001e0fe80087
:100e2000090007001e007800800078001e00900076
:100e300000804000104078000004e000f2ff3a001b
:100e40000080fa00000006000200fa00004f78005f
:100e500023c2bf00624060000004e000fcff3a00d3
:100e60001e00fb00201188000080fa000000060030
:100e70000000fa0022c2bf00624060000004e000ef
:100e8000010032002222a90022c2bf00614060009e
:100e90000004e000fcff3200301180000000fb0085
:100ea0000080fa0000000600000020009001880089
:100eb00060002000310020000108bb00000020007d
:100ec0009001880080002000510c20000108bb0028
:100ed000000006001d000900000000000000e900fd
:100ee000030032002200090000000000fbff370071
:100ef0000000060080007800803e20006a070200a3
:100f0000000000008100e900fbff3a00000006003d
:0c0f10007c060900000000000000060044
:020000040000fa
:100f1c002a0a000004000000020000000002010088
:100f2c0000000000000800002a0200000000000081
:040f3c0000000000b1
:00000001FF
