:020000040000fa
:080000000002040000000000f2
:020000040000fa
:10040000ef3421000e7f24000e0188000000000060
:100410000c000700c0c720000100200011000700e9
:10042000000020000000e000020032000000020096
:1004300000000000ce0a0200000000000040da00c8
:100440000000fe004440a900201120000000e00050
:100450000300320000002000a00188004440a800f2
:100460000000060091018800800078000000eb0089
:1004700015003700e280400032a0b4009101ba00bc
:10048000e280400032a0b4009102ba00e280400055
:1004900032a0b4000002eb00472bde00f507b200eb
:1004a000602ce10004003a000059eb008301e900f0
:1004b000fdff3e00040037006128e100010032002a
:1004c0000082eb00040007001101ba000200e00006
:1004d000e8ff3a00000006003159ba008301e90044
:1004e0000c0032002159ba008301e90008003200f3
:1004f0000400e00003003a00e280400032a0b400b3
:10050000f5ff370011d9ba008301e900faff3a007c
:100510008100e800e180400032a0b4000000060045
:100520000040da000000fe00800078001104b100f5
:10053000030035009101b10001003c000050a00013
:10054000000006000003b1000b0035009000b10070
:10055000080034008000b100070035009001b100b0
:10056000040034007000b100030035009001b100b8
:1005700001003c0010000500000005001004b1005f
:10058000070035009001b100040034007000b10094
:10059000030035009001b10001003c00100005008f
:1005a0000000050010417800b141510003003a00fd
:1005b0000000e8000204e000faff3a000300fb003c
:1005c000000006000001780000c2b30001003700ff
:1005d0000201e8009240780080cf5000fcff32001a
:1005e000e9cf5000faff3200d0c2b30080cf5000f4
:1005f00003003a000201e80014c0b3000500370010
:100600000042eb00b0c2b30080cf500001003a00be
:100610000201e8008000eb0005fd2f000400370018
:100620006a08b90000804100850040000201e8002e
:100630009201fb0005804100e90f5000f8ff3600f1
:100640000404e000010032008100ea0001007800ab
:1006500000000600000278008101780001007800a7
:10066000110009000280d8008400e8000000e000ca
:100670000200320001027800f9ff37008048eb00e9
:10068000110009008281d8008000fd0081017800fe
:10069000e94f5000010034006740400005c3b3003b
:1006a000055240000100e000f5ff3a000400780028
:1006b00000000600881f7800000478000100e000b8
:1006c00002003500800178000400370080017800c6
:1006d000d0c2b300805978008100ea00030078009e
:1006e000dcff0700080078004f04780000000600d7
:020000040000fa
:1000080090020000900200009002000090020000a0
:100018009002000090020000900200009002000090
:100028009002000090020000900200000209000007
:100038009002000090020000900200009002000070
:100048009002000090020000900200009002000060
:10005800d00800009002000090020000900200000a
:100068009002000090020000900200009002000040
:100078009002000090020000900200009002000030
:100088009002000090020000900200009002000020
:100098009002000090020000900200009002000010
:1000a8009002000090020000900200009002000000
:1000b80090020000900200009002000090020000f0
:1000c80090020000900200009002000090020000e0
:1000d80090020000900200009002000090020000d0
:1000e80090020000900200009002000090020000c0
:1000f80090020000900200009002000090020000b0
:10010800900200009002000090020000900200009f
:10011800900200009002000090020000900200008f
:10012800900200009002000090020000900200007f
:10013800900200009002000090020000900200006f
:10014800900200009002000090020000900200005f
:10015800900200009002000090020000900200004f
:10016800900200009002000090020000900200003f
:10017800900200009002000090020000900200002f
:10018800900200009002000090020000900200001f
:10019800900200009002000090020000900200000f
:1001a80090020000900200009002000090020000ff
:1001b80090020000900200009002000090020000ef
:1001c80090020000900200009002000090020000df
:1001d80090020000900200009002000090020000cf
:1001e80090020000900200009002000090020000bf
:0801f8009002000090020000db
:020000040000fa
:10020800900200009002000090020000900200009e
:10021800900200009002000090020000900200008e
:100228009002000090020000900200000209000005
:10023800900200009002000090020000900200006e
:10024800900200009002000090020000900200005e
:10025800d008000090020000900200009002000008
:10026800900200009002000090020000900200003e
:10027800900200009002000090020000900200002e
:10028800900200009002000090020000900200001e
:10029800900200009002000090020000900200000e
:1002a80090020000900200009002000090020000fe
:1002b80090020000900200009002000090020000ee
:1002c80090020000900200009002000090020000de
:1002d80090020000900200009002000090020000ce
:1002e80090020000900200009002000090020000be
:1002f80090020000900200009002000090020000ae
:10030800900200009002000090020000900200009d
:10031800900200009002000090020000900200008d
:10032800900200009002000090020000900200007d
:10033800900200009002000090020000900200006d
:10034800900200009002000090020000900200005d
:10035800900200009002000090020000900200004d
:10036800900200009002000090020000900200003d
:10037800900200009002000090020000900200002d
:10038800900200009002000090020000900200001d
:10039800900200009002000090020000900200000d
:1003a80090020000900200009002000090020000fd
:1003b80090020000900200009002000090020000ed
:1003c80090020000900200009002000090020000dd
:1003d80090020000900200009002000090020000cd
:1003e80090020000900200009002000090020000bd
:0803f8009002000090020000d9
:020000040000fa
:1006f0000d0a000045720000726f0000722e0000ab
:100700002054000079700000652000002768000078
:10071000656c0000702700002e0d00000a0000002c
:100720000d0a00005265000061640000792e00008f
:100730000d0a0000000d00000a4e00006f200000ae
:1007400044650000766900006365000020460000f3
:100750006f7500006e6400002e0d00000a0000009e
:100760000d0a0000576500006c6300006f6d00000b
:10077000652e00000d0a0000466f00007220000088
:10078000636d000064200000747900007065000053
:1007900020270000686500006c700000272e000014
:1007a0000d0a0000000d00000a4300006d64000007
:1007b000732000006172000065200000636100008a
:1007c00073650000206900006e730000656e000014
:1007d0007365000074690000766500002e0d00004e
:1007e0000a410000647200003a31000020740000e9
:1007f0006f20000035310000323b00002064000013
:1008000061740000613a000030200000746f000045
:1008100020320000353500000d0a00002d2d0000ab
:100820002d2d00002d2d00002d2d00002d2d000060
:100830002d2d00002d2d00002d2d00002d2d000050
:100840002d2d00002d2d00002d2d00002d2d000040
:100850002d0d00000a7300006574000020410000a7
:10086000647200002064000061740000610d0000eb
:100870000a670000657400002041000064720000f7
:100880000d0a00006d610000782000004164000046
:10089000720d00000a6f00006e0d00000a6f00006c
:1008a000666600000d0a0000706f00006c6c0000ae
:1008b0000d0a0000636c000065610000720d00000d
:1008c0000a00000073650000740000006765000006
:1008d000740000000d0a0000006d00006178000047
:1008e000006300006c65000061720000006f000092
:1008f0006e0000006f66000066000000706f000070
:100900006c6c000000680000656c00007000000066
:0409100020000000c3
:020000040000fa
:100914000000fa00313a800000e02f0000806000ff
:100924006102200001007000303a88004174200008
:100934009140780000ceb30000c0600044e7b700e7
:1009440044c7bf00f043b20044e7b700cc82a9001b
:10095400cca2a900c882a900c8a2a9006960a80005
:10096400416a20009140780000ceb30000c06000ce
:10097400b040b300a4e6b700a16c20009140780019
:1009840000ceb30000c060003040b300cae6b70038
:10099400cd02a900c902a900616a20009140780033
:1009a40000ceb30000c060007040b300a6e6b700fc
:1009b400616c20009140780000ceb30000c060005c
:1009c4005040b300c6e6b7000080fa0000000600fd
:1009d4000200fa00000f78000000eb000008880015
:1009e4000421a9004110200091407800f0ccb3000c
:1009f40000c0600001c2b3000140700004e1b70010
:100a040005e1a8001e007800100888008460a90091
:100a14009460a8000080fa00000006000400fa00b8
:100a2400100798000000eb00000f7800200037004a
:100a340062b42000124178008281fb001e0078001d
:100a4400800078001e009000008040001040780074
:100a540080407800e0a32000008041000148780035
:100a64000240e80046ebb7001e0fe80046cbbf008b
:100a74000080fb000000e8000210200011000900c3
:100a84000200d8008000fd008000780047cbbf0042
:100a94000080fb00808f500003003a00100020000b
:100aa400405a8800020037000000eb00405a8800da
:100ab4001e007800800078001e0090000080400036
:100ac400104078000004e00003003200405a800027
:100ad4000000e000d6ff320023c2bf006240600085
:100ae4000004e0000a003a0072b4200012417800c9
:100af4008280fb00e0a320000080400010407800ca
:100b04000080fb00201188000240e80047ebb7009a
:100b14000080fa00000006000400fa00881f780034
:100b24001d030700004f780080c0b3009e4f1000e3
:100b340007003a00004080000000e000040032009a
:100b4400004080000000e9000040880029003700d0
:100b5400d0c0b3009e4f10000a003a00014080004c
:100b6400d0a12000808040000040eb008048780045
:100b74000000eb00004088001000200010079800df
:100b84001e003700f0c1b3009e4f1000190036005c
:100b9400e0c7b3009e4f100016003e0008408000de
:100ba4001e80fb005ffe070080407800d0a120007b
:100bb40000004400014878000800e8000040880074
:100bc40000408000f40f50000a003a000140800009
:100bd400d0a12000808040000040eb0080487800d5
:100be4000000eb000040880010002000100798006f
:100bf400020037000000eb00100798001e00900070
:100c04004f0478000080fa00000006000800fa0093
:100c14000000eb00200798000000eb00100798008c
:100c240040c6b300004f78000000eb00e05188009c
:100c34000000eb00300798005d003700be00900014
:100c4400d0a1200000804000104078000000fb008c
:100c54003bfe07000000e0004b003200be009000a5
:100c6400d0a1200000804000104078000000fb006c
:100c740041fe07000000e0001d00320040c6b30042
:100c84009e4f100014003a002e0090008000400097
:100c940020a3200000804000be00900001087800de
:100ca400ae00900080a120008080400010c6b300f8
:100cb400804878002e0090000000e800200798008b
:100cc40010c6b300004f7800e05180000000e80037
:100cd400e051880033003700e0c6b3009e4f100097
:100ce40030003a0010002000100798003900370047
:100cf400be009000d0a12000008040001040780089
:100d04008000fb0000fd2f0000804000e90f500030
:100d140024003e0040c6b3009e4f100014003a0069
:100d24002e0090008000400020a32000008040009e
:100d3400be00900001087800ae00900080a1200061
:100d440080804000e0c6b300804878002e00900008
:100d54000000e80020079800e0c6b300004f7800c8
:100d6400e05180000000e800e05188000d003700e9
:100d740010c6b3009e4f10000a003a001000200075
:100d84001007980013003700be009000d0a1200087
:100d9400808040000040eb008048780040c6b300eb
:100da400004f78003e0090000000e80030079800f3
:100db400be009000d0a120000080400010407800c8
:100dc4000004e000030032003e009000f40f5000e5
:100dd4009aff36001e0090000080fa000000060012
:100de4000600fa00000f7800110798009051800067
:100df40080007800d0a12000808040001e00780090
:100e0400e7fd07000000e00007003a009e009000a4
:100e1400e0518000808f500003003a001000200051
:100e240020079800020037000000eb00200798001c
:100e34002e0090000080fa00000006000200fa0074
:100e4400000f78001e0078008000400020a32000de
:100e5400008040001000780080007800d0a12000bd
:100e640000804000d6fd07000080fa000000060064
:100e74000200fa000000eb00000f780006003700c3
:100e84009e00780020802000808040000040eb001d
:100e9400804878001e0fe800002020009e0f1000fc
:100ea400f7ff34000080fa00000006000c00fa008e
:100eb4000000eb00000f780017ff07000000e000bf
:100ec400b400320051ff07000000e0009e003a0029
:100ed4003100200020462800c1ff07000000e00088
:100ee4002b00320091a1200091407800e0c6b300ad
:100ef40080cf500023003a00a1a120009140780047
:100f0400e0c6b30080cf50001e003a00100020005d
:100f1400caff07002007980020002000c7ff070031
:100f2400100798002e0090000000e000120034002a
:100f3400ae00900000202000808f50000e003c0086
:100f44001e0090000000e0000b0035009e009000a1
:100f5400f00f2000808f500007003c002e0190000d
:100f64001e00900080407800208020000000410096
:100f7400014878007600370010002000000f780048
:100f84007300370010002000000f78007000370055
:100f9400210020006046280091ff07000000e000c7
:100fa4002200320091a1200091407800e0c6b300f5
:100fb40080cf50001a003a00100020009fff070065
:100fc400200798002e0090000000e000110034007b
:100fd400ae00900000202000808f50000d003c00e7
:100fe400ae00900020802000008040001040780077
:100ff4008080fb0066004700a2002000acfd0700d3
:10100400a046280085fe07006600470083fe07000f
:101014004f00370010002000000f78004c0037000c
:1010240010002000000f7800490037002100200044
:10103400d04628006aff07000000e00018003200d4
:1010440091a1200091407800e0c6b30080cf500009
:1010540010003a001000200078ff070020079800d5
:101064002e0090000000e00007003400ae00900065
:1010740000202000808f500003003c002e009000d0
:10108400005a88003200370010002000000f78005a
:101094002f00370010002000000f78002c003700cc
:1010a40011002000104728004dff07000000e00059
:1010b400020032006eff07002500370011002000f7
:1010c4007047280046ff07000000e00003003200dc
:1010d40010c0b30042ebb7001d0037001100200020
:1010e400a04728003eff07000000e0000300320094
:1010f4000040eb0042ebb700150037001100200060
:10110400e047280036ff07000000e000030032003b
:1011140010002000205a88000d0037001100200024
:10112400304828002eff07000000e00003003200d2
:10113400303d280039fe070005003700100020006c
:10114400000f78000200370010002000000f780024
:101154001e00e00005003200803728002ffe070043
:101164000000eb00000f78000a0037001e00e000ca
:1011740008003a00a00f2000605a8800cc82a80022
:10118400205a80000000e00002003a0000392800e4
:1011940022fe07000080fa0000000600809fbe00c7
:1011a400821f78000000fa0071b42000914078009a
:1011b40046cbbf0080cf50000c00320072b4200038
:1011c400124178008280fb00e0a3200000804000f0
:1011d400104078000080fb00201188000240e800e5
:1011e40047ebb7000000eb00405a88008580a90057
:1011f4000080fa004f0178004f00be000040060056
:10120400801f78000000fa000000eb00000888004e
:10121400505a80000000e00007003400505a80005b
:101224000000e900505a8800505a80000000e00095
:1012340001003c00cca2a900605a80000000e0003c
:1012440007003400605a80000000e900605a8800fa
:10125400605a80000000e00001003c00cc82a9003c
:101264008460a9000080fa004f0078000040060066
:101274000200fa00004f78000000370033c2bf00bc
:10128400614060000004e000fcff320032c2bf0095
:10129400704060000004e000f8ff3200cd02a800b6
:1012a40090012000c01188000040eb006701070096
:1012b40033c2bf00614060000004e000fcff320064
:1012c40090002000c01188001e4078005f010700d4
:1012d4000080fa00000006000a02fa0020079a00c3
:1012e40031079a00100020001007980018003700fa
:1012f4009e0090002e009200808f50000b0035005d
:101304009e0090003e009200808f500007003c0039
:101314001e0090008000e9006400470080804000c7
:1013240010c0b30080487800060037001e0090000b
:101334008000e90064004700808040000040eb002a
:10134400804878001e0090000000e8001007980014
:101354009e00900000202000808f5000e4ff3400a5
:10136400f05980000000e0001e003400100020004e
:10137400100798000000eb00000f780015003700fc
:101384001e0078008000400040a020000080400043
:10139400900078001e009000808f50000a003a00f0
:1013a4001e0090008000e900640047008080400037
:1013b4000040eb00804878001e0fe800f0598000e0
:1013c4009e0f100007003d001e0090000000e80082
:1013d400100798009e00900000202000808f50008d
:1013e400e7ff340000cfb300a1ff07000000eb00cb
:1013f40010079800080037009e0090006400470022
:101404000080400010407800100107001e0090008a
:101414000000e800100798009e009000f01f2000d4
:10142400808f5000f4ff340033c2bf00614060007d
:101434000004e000fcff3200cd02a9000000eb0034
:10144400100798001700370032c2bf0061406000e7
:101454000004e0000e00320032c2bf0064406000ad
:101464000004e00009003200020107000004e0006b
:1014740007003a00a00f2000505a8800cca2a80010
:101484001000200040079a000c003700f900070004
:1014940010002000050107001e0090000000e80075
:1014a400100798009e009000b0032000808f500029
:1014b400e5ff34000000eb0040079a004e00920064
:1014c4000080fa00000006000600fa001000200068
:1014d400200798000000eb00f0598800270037002f
:1014e4000020200010079800000037009e009000a4
:1014f4002e00900078ff07000000e0001400320086
:10150400ae0090001e009000808f500009003a0049
:10151400f15980000181400040a0200000004100fa
:101524002e019000020878000100e800f0598800bc
:1015340012003700ae0090001e00900000804000b2
:101544000000e9000080d10010079800e7ff370091
:101554002e009000000f78001e0090000000e800ac
:10156400200798001e009000000040001e0050005c
:101574000000e80010079800dcff3700012020007d
:101584001000200054ff07000000e000d4ff3a00e0
:101594000080fa00000006000800fa00dcfc0700e6
:1015a4001008200051000700900120008800070067
:1015b4001027200006fd0700cd02a8002cfe07001e
:1015c400cc82a800401f2000c0000700cc82a900e4
:1015d400003b280011fd07000000370042cbbf008c
:1015e4000004e0003b0032000040eb0020ff070055
:1015f40010002000000f78000b0037009e007800d8
:101604002080200000804000104078001e0fe80079
:101614008e00070022c2bf00614060000004e000a9
:101624000100320021fe07009e007800005a80006d
:10163400808f5000f1ff3600205a8000e10f5000e7
:10164400e6ff3a000000eb00205a88009eff0700e6
:10165400f05980000000e00019003400f0598000c7
:101664000000e900f059880011003700f1598000aa
:101674000181400040a0200000004100900178005a
:101684000100e900f05988000e80e800a200200063
:101694008300780006fc0700a0462800dffc070052
:1016a4000e80e800ddfc070080482800dbfc070012
:1016b400f05980000000e000ecff3d00020037001c
:1016c400b0392800d5fc070000392800d3fc0700f6
:1016d400c2ff370022c2bf00614060000004e00086
:1016e400beff3200f1fd0700bcff37000200fa0024
:1016f400000f78001e0078004011880000002800c8
:101704000011880000402000101188008580a90085
:101714009580a8000080fa00000006000400fa008a
:10172400100798000000eb00000f78000700370056
:101734001e007800800078001e00900000804000a9
:10174400104078001e0fe800090007001e00780012
:10175400800078001e009000008040001040780057
:101764000004e000f2ff3a000080fa0000000600e6
:101774000200fa00004f780023c2bf0062406000fc
:101784000004e000fcff3a001e00fb00201188006a
:101794000080fa00000006000000fa0022c2bf0028
:1017a400624060000004e000010032002222a9002f
:1017b40022c2bf00614060000004e000fcff320070
:1017c400301180000000fb000080fa0000000600d9
:1017d4000200fa00000f78001e007800c011880093
:1017e400100028008011880000402000901188001b
:1017f4000080fa00000006000400fa0010079800b8
:101804000000eb00000f7800070037001e0078008e
:10181400800078001e009000008040001040780096
:101824001e0fe800090007001e0078008000780001
:101834001e00900000804000104078000004e0008a
:10184400f2ff3a000080fa00000006000200fa00ed
:10185400004f780033c2bf00624060000004e00023
:10186400fcff3a001e00fb00a01188000080fa0073
:10187400000006000000fa0032c2bf0062406000af
:101884000004e000010032003222a90032c2bf008d
:10189400614060000004e000fcff3200b0118000f1
:1018a4000080fb000080fa00000006001d00090013
:1018b400000000000000e9000300320022000900db
:1018c40000000000fbff37000000060080007800e5
:1018d400803e2000580c0200000000008100e90056
:1018e400fbff3a00000006007c060900000000002f
:0418f40000000600ea
:020000040000fa
:1018f8003e0b000010000000020000000000000085
:1019080002010000000000000000000000000000cc
:1019180000000000000800003e0300000000000076
:0419280000000000bb
:00000001FF
