:020000040000fa
:080000000002040000000000f2
:020000040000fa
:10040000af8020000e7f24000e0188000000000055
:100410000c000700a0592000010020001100070077
:10042000000020000000e000020032000000020096
:100430000000000044040200000000000040da0058
:100440000000fe004440a900000020000000e00081
:100450000300320000002000a00188004440a800f2
:100460000000060091018800800078000000eb0089
:1004700015003700e280400032a0b4009101ba00bc
:10048000e280400032a0b4009102ba00e280400055
:1004900032a0b4000002eb00472bde00f507b200eb
:1004a000602ce10004003a000059eb008301e900f0
:1004b000fdff3e00040037006128e100010032002a
:1004c0000082eb00040007001101ba000200e00006
:1004d000e8ff3a00000006003159ba008301e90044
:1004e0000c0032002159ba008301e90008003200f3
:1004f0000400e00003003a00e280400032a0b400b3
:10050000f5ff370011d9ba008301e900faff3a007c
:100510008100e800e180400032a0b4000000060045
:080520000040da000000fe00bb
:020000040000fa
:1000080090020000900200009002000090020000a0
:100018009002000090020000900200009002000090
:10002800900200009002000090020000940200007c
:100038009002000090020000900200009002000070
:100048009002000090020000900200009002000060
:100058009002000090020000900200009002000050
:100068009002000090020000900200009002000040
:100078009002000090020000900200009002000030
:100088009002000090020000900200009002000020
:100098009002000090020000900200009002000010
:1000a8009002000090020000900200009002000000
:1000b80090020000900200009002000090020000f0
:1000c80090020000900200009002000090020000e0
:1000d80090020000900200009002000090020000d0
:1000e80090020000900200009002000090020000c0
:1000f80090020000900200009002000090020000b0
:10010800900200009002000090020000900200009f
:10011800900200009002000090020000900200008f
:10012800900200009002000090020000900200007f
:10013800900200009002000090020000900200006f
:10014800900200009002000090020000900200005f
:10015800900200009002000090020000900200004f
:10016800900200009002000090020000900200003f
:10017800900200009002000090020000900200002f
:10018800900200009002000090020000900200001f
:10019800900200009002000090020000900200000f
:1001a80090020000900200009002000090020000ff
:1001b80090020000900200009002000090020000ef
:1001c80090020000900200009002000090020000df
:1001d80090020000900200009002000090020000cf
:1001e80090020000900200009002000090020000bf
:0801f8009002000090020000db
:020000040000fa
:10020800900200009002000090020000900200009e
:10021800900200009002000090020000900200008e
:10022800900200009002000090020000940200007a
:10023800900200009002000090020000900200006e
:10024800900200009002000090020000900200005e
:10025800900200009002000090020000900200004e
:10026800900200009002000090020000900200003e
:10027800900200009002000090020000900200002e
:10028800900200009002000090020000900200001e
:10029800900200009002000090020000900200000e
:1002a80090020000900200009002000090020000fe
:1002b80090020000900200009002000090020000ee
:1002c80090020000900200009002000090020000de
:1002d80090020000900200009002000090020000ce
:1002e80090020000900200009002000090020000be
:1002f80090020000900200009002000090020000ae
:10030800900200009002000090020000900200009d
:10031800900200009002000090020000900200008d
:10032800900200009002000090020000900200007d
:10033800900200009002000090020000900200006d
:10034800900200009002000090020000900200005d
:10035800900200009002000090020000900200004d
:10036800900200009002000090020000900200003d
:10037800900200009002000090020000900200002d
:10038800900200009002000090020000900200001d
:10039800900200009002000090020000900200000d
:1003a80090020000900200009002000090020000fd
:1003b80090020000900200009002000090020000ed
:1003c80090020000900200009002000090020000dd
:1003d80090020000900200009002000090020000cd
:1003e80090020000900200009002000090020000bd
:0803f8009002000090020000d9
:020000040000fa
:10052800801f78000000fa000000eb000008880037
:10053800204080000000e0000700340020408000d8
:100548000000e90020408800204080000000e00012
:1005580001003c00cca2a900304080000000e0006f
:1005680007003400304080000000e9003040880077
:10057800304080000000e00001003c00cc82a80070
:10058800404080000000e000070034004040800048
:100598000000e90040408800404080000000e00082
:1005a80001003c00cc82a9008460a9000080fa0008
:1005b8004f007800004006000000fa00313a800041
:1005c80000e02f0000806000610220000100700040
:1005d800303a8800417420009140780000ceb30082
:1005e80000c0600044e7b70044c7bf00f043b20052
:1005f80044e7b700cc82a900cca2a900c882a90010
:10060800c8a2a9002ca3a8004116800080e02f00f2
:100618000080700040168800c082a8004103800056
:1006280010882f0000807000400388006a00a8002e
:100638006aa0a800cd02a900c902a900616a200029
:100648009140780000ceb30000c060007040b30055
:10065800a6e6b700616c20009140780000ceb30098
:1006680000c060005040b300c6e6b700216c20000f
:100678009140780000ceb30000c060002041b30074
:10068800c2e6b7000080fa00000006000000fa0089
:100698001021a900011120009140780000c3b30087
:1006a80000c0700010e1b70011e1a800f00f2000b1
:1006b800600888000000eb00200c88000000eb00b8
:1006c800100c88000000eb00000c88008461a90071
:1006d800411820009140780080cfb30000c060002e
:1006e8006040b30084e1b7000080fa000000060013
:1006f8000200fa00000f78001e007800000c880045
:100708000080fa00000006000200fa00000f7800de
:100718000000eb00000888000421a9004110200017
:1007280091407800f0ccb30000c0600001c2b30073
:100738000140700004e1b70005e1a8001e00780040
:10074800100888008460a9009460a8000080fa005e
:10075800000006000000fa005116800000e02f009b
:10076800008060004700de0000408800c2c2bf0071
:100778000080fb004400de00614060000080fb0058
:100788000000400080007800004080000080700079
:1007980000408800cac2bf000080fb004300de00a2
:1007a800614060008080fb00004080000080700095
:1007b80000408800004080008080ea00f01f200090
:1007c8000080600000408800004080000000e800d1
:1007d800004088000080fa00000006000000fa00cf
:1007e80033c2bf00614060000004e000fcff32003b
:1007f800cd02a80090012000c01188000040eb0045
:100808009e00070033c2bf00614060000004e000a2
:10081800fcff320090002000c01188000080fa0020
:10082800000006000400fa001000200010079800dd
:100838000b0037009b000700004f78000140800044
:100848001e009000810f500002003a001e40780000
:10085800104798001e0090000000e800100798005c
:100868009e00900000202000808f5000f1ff36008d
:100878001e4090000080fb000080fa000000060087
:100888000800fa000000eb00000f78004aff07009c
:100898007eff070090002000590007001027200065
:1008a80099ff0700cd02a900cc82a800401f2000b4
:1008b80094000700cc82a90000003700a5ff0700bc
:1008c80032c2bf00614060000004e000fbff32005c
:1008d80032c2bf00644060000004e000240032001f
:1008e800700007000004e000f4ff3a006d00070004
:1008f800604798006e4090000004e0000b003a004a
:1009080010002000000f7800100020001007980049
:10091800803e200040408800304080000000e00019
:10092800e6ff3c00cc82a800e4ff37006e40900050
:10093800f04f4000e1ff3a00baff07004047980037
:100948004e4090000004e000dcff3200cd02a80019
:100958001000200063000700a0ff0700a00f200080
:1009680020408800cca2a800cd02a900d3ff370000
:100978001e00e000200032004a000700604798008f
:10098800014080001e009000810f500010003a00c6
:10099800ee4090005e40900080cf5000030032008f
:1009a800a00f200030408800cc82a9006e40900043
:1009b800504798006e4090000080fb004cff0700f5
:1009c8000000eb00000f78000000eb001007980013
:1009d8001e0090000000e800100798009e0090009c
:1009e80000202000808f5000b4ff36000000eb008c
:1009f80010079800b1ff37002a000700afff370043
:100a08000200fa00000f78001e007800c01188006c
:100a180010002800801188000040200090118800f4
:100a28000080fa00000006000400fa001007980091
:100a38000000eb00000f7800070037001e00780068
:100a4800800078001e009000008040001040780070
:100a58001e0fe800090007001e00780080007800db
:100a68001e00900000804000104078000004e00064
:100a7800f2ff3a000080fa00000006000200fa00c7
:100a8800004f780033c2bf00624060000004e000fd
:100a9800fcff3a001e00fb00a01188000080fa004d
:100aa800000006000200fa0032c2bf006140600088
:100ab8000004e000fcff3200b0118000004f780015
:100ac80032c2bf00624060000004e0000100320052
:100ad8003222a9001e4078000080fb000080fa0046
:100ae800000006001d000900000000000000e900e9
:100af800030032002200090000000000fbff37005d
:100b08000000060080007800803e20007605020084
:100b1800000000008100e900fbff3a000000060029
:0c0b28007c060900000000000000060030
:020000040000fa
:100b3400000800000a00000000000000000000009f
:00000001FF
